:02000000FB2BD8
:1004D60006308312A200A20B6E2A000083129F141C
:1004E6009F18762A772A732A1E08A10083161E08EB
:1004F6008312A0000800013083169F000730831284
:10050600990083169901813083129F000330A10060
:100516009730A000A00B8D2AA10B8D2A922A0800E5
:1005260000308312AC000030AB000030AA0000306F
:10053600A900201C9F2AA02AB72A2408A907250853
:1005460003110318013E0319A92AAA072608031155
:100556000318013E0319B02AAB0727080311031835
:10056600013E0319B72AAC070130A8000310A40DF9
:10057600A50DA60DA70DA80BB92A01300310A30CD3
:10058600A20CA10CA00CFF3E031DC12A23082204C5
:1005960021042004031DD02AD12A9C2A2C08A3005A
:1005A6002B08A2002A08A1002908A0000800003094
:1005B6008312B9000030B8000030B7000030B60032
:1005C60030082F042E042D040319EA2AEB2A362BB1
:1005D6000130BA00F92A0130B5000310AD0DAE0D99
:1005E600AF0DB00DB50BF02A0130BA07B01FFC2ACB
:1005F600FD2AEE2A0130B5000310B60DB70DB80D71
:10060600B90DB50BFF2A30083402031D142B2F0831
:100616003302031D142B2E083202031D142B2D0842
:100626003102031C172B182B272B2D08B1022E087D
:10063600031C2E0FB2022F08031C2F0FB302300823
:10064600031C300FB402361401300310B00CAF0C8B
:10065600AE0CAD0CFF3E031D282B0130BA02031D64
:10066600352B362BFD2A3908B0003808AF0037087D
:10067600AE003608AD0008000930831685008312E7
:1006860085017E226B2283122108BF002008BE004E
:100696000030B0000030AF000330AE00FF30AD00D8
:1006A6003E08A0003F08A100A201A3010030A70058
:1006B6000030A6002730A5001030A4009322831234
:1006C6002308B4002208B3002108B2002008B100B4
:1006D600DA2283123008C3002F08C2002E08C10098
:1006E6002D08C0008519782B792B862B1A30BC0073
:1006F600F830BB00BB0B7D2BBC0B7D2B000083129F
:1007060085140130C4004308031D972B4208031DBE
:10071600972B18304102031D942B9D304002031D78
:10072600942B0318972B982B9C2B8312851401303E
:10073600C40083124308031DAF2B4208031DAF2BD1
:100746001A304102031DAB2BF4304002031DAB2BC4
:10075600031CAE2BAF2BB22B83128510C401831260
:1007660044080319B72BB82BD42B05150230BD004E
:100776008630BC009930BB00BB0BBF2BBC0BBF2B1C
:10078600BD0BBF2B831205110230BD008630BC00A5
:100796009930BB00BB0BCD2BBC0BCD2BBD0BCD2B92
:1007A600E22B05150630BD001330BC00AD30BB0092
:1007B600BB0BDB2BBC0BDB2BBD0BDB2BE22B83122A
:1007C6004308031DF72B4208031DF72B1630410281
:1007D600031DF12BA8304002031DF12B031CF42B43
:1007E600F72B83120516F92B83120512452B0028C9
:0807F6008312C40183013F2BB3
:02400E0054302C
:00000001FF
